:100000000C945D000C9485000C9485000C94850084
:100010000C9485000C9485000C9485000C9485004C
:100020000C9485000C9485000C9485000C9485003C
:100030000C9485000C9485000C9485000C9485002C
:100040000C9404040C9485000C94D2030C94AC031F
:100050000C9485000C9485000C9485000C9485000C
:100060000C9485000C94850000000008000201003B
:100070000003040700000000000000000000000072
:10008000250028002B0000000000240027002A0083
:10009000040404040404040402020202020203032E
:1000A0000303030301020408102040800102040836
:1000B00010200102040810204E0411241FBECFEFAF
:1000C000D8E0DEBFCDBF22E0AAE4B1E001C01D92BE
:1000D000A035B207E1F711E0A0E0B1E0ECEBFDE004
:1000E00002C005900D92AA34B107D9F710E0CDE512
:1000F000D0E004C02197FE010E94D106CC35D10783
:10010000C9F70E94A8040C94DC060C94000090E04F
:10011000FC01EC55FF4F2491FC01E057FF4F849107
:10012000882399F090E0880F991FFC01EA57FF4F50
:10013000A591B491FC01E458FF4F859194918FB73C
:10014000F894EC91E22BEC938FBF0895EDE5F1E08C
:10015000A089B18982E08C93A485B5851C92A6857F
:10016000B7858FEC8C93108EA489B58986E08C932B
:10017000A289B3898C9180618C93A289B3898C9177
:1001800088608C93A289B3898C9180688C93028853
:10019000F389E02D80818F7D80830895CF92DF9257
:1001A000EF92FF920F931F932FB7F894C0905901CD
:1001B000D0905A01E0905B01F0905C012FBFDC0110
:1001C000CB018C0D9D1DAE1DBF1D4FB7F894009146
:1001D000590110915A0120915B0130915C014FBF90
:1001E0000C151D052E053F0528F080179107A20765
:1001F000B30758F71F910F91FF90EF90DF90CF90CA
:100200000895CF92DF92EF92FF920F931F93CF93B7
:10021000DF936C017A018B01C0E0D0E0CE15DF05E1
:1002200089F0D8016D918D01D601ED91FC9101907D
:10023000F081E02DC6010995892B11F47E0102C0E1
:100240002196ECCFC701DF91CF911F910F91FF90C5
:10025000EF90DF90CF900895089580E090E00895AA
:10026000FC01538D448D252F30E0842F90E0821BBC
:10027000930B541710F0CF96089501970895FC0141
:10028000918D828D981761F0828DDF01A80FB11DCD
:100290005D968C91928D9F5F9F73928F90E00895F1
:1002A0008FEF9FEF0895FC01918D828D981731F0AB
:1002B000828DE80FF11D858D90E008958FEF9FEFFF
:1002C0000895FC01918D228D892F90E0805C9F4FD5
:1002D000821B91098F73992708958DE591E00E9403
:1002E000610121E0892B09F420E0822F0895FC01AF
:1002F000848DDF01A80FB11DA35ABF4F2C91848DAF
:1003000090E001968F739927848FA689B7892C93E3
:10031000A089B1898C9180648C93938D848D98137E
:1003200006C00288F389E02D80818F7D8083089547
:10033000EF92FF920F931F93CF93DF93EC0181E035
:10034000888F9B8D8C8D981305C0E889F9898081F1
:1003500085FD24C0F62E0B8D10E00F5F1F4F0F732D
:100360001127E02E8C8DE8120CC00FB607FCFACFD7
:10037000E889F989808185FFF5CFCE010E94770158
:10038000F1CF8B8DFE01E80FF11DE35AFF4FF08294
:100390000B8FEA89FB898081806207C0EE89FF8923
:1003A0006083E889F98980818064808381E090E0BE
:1003B000DF91CF911F910F91FF90EF900895CF9310
:1003C000DF93EC01888D8823C9F0EA89FB8980815D
:1003D00085FD05C0A889B9898C9186FD0FC00FB62F
:1003E00007FCF5CF808185FFF2CFA889B9898C9170
:1003F00085FFEDCFCE010E947701E7CFDF91CF914E
:10040000089580E090E0892B29F00E946D01811110
:100410000C940000089590E0FC01E859FF4F3491DE
:10042000FC01EC55FF4F2491FC01E057FF4FE49194
:10043000EE2309F43BC0332339F1333091F038F423
:100440003130A9F0323001F584B58F7D12C03730DC
:1004500091F03830A1F03430B9F4809180008F7D74
:1004600003C0809180008F77809380000DC084B599
:100470008F7784BD09C08091B0008F7703C08091D1
:10048000B0008F7D8093B000F0E0EE0FFF1FE458C6
:10049000FF4FA591B4918FB7F894EC91611103C00F
:1004A00020952E2301C02E2B2C938FBF08953FB78C
:1004B000F89480914B0190914C01A0914D01B09125
:1004C0004E0126B5A89B05C02F3F19F00196A11D2E
:1004D000B11D3FBFBA2FA92F982F8827820F911DDA
:1004E000A11DB11DBC01CD0142E0660F771F881F21
:1004F000991F4A95D1F708958EBD0DB407FEFDCF23
:100500008EB508950F931F93CF93DF93C82FD62FE7
:1005100002E412E060E0F80182850E940B028C2F59
:10052000880F8E770E947C028D2F0E947C0261E0F2
:10053000F8018285DF91CF911F910F910C940B02EE
:100540000F931F93CF93C82F02E412E060E0F801ED
:1005500082850E940B028C2F880F8E7780680E9404
:100560007C0280E00E947C02C82F61E0F801828555
:100570000E940B028C2FCF911F910F9108951F9312
:10058000CF93DF931F92CDB7DEB7182F69830E94F8
:10059000A0026981682B812F0F90DF91CF911F916D
:1005A0000C9482021F93CF93DF931F92CDB7DEB7D7
:1005B000182F69830E94A002698160956823812FAA
:1005C0000F90DF91CF911F910C9482028F929F9296
:1005D000AF92BF92CF92DF92EF92FF920F931F9351
:1005E000CF93DF931F92CDB7DEB75C01C62E4A01D1
:1005F000890167EF82E00E94820260E884E00E9445
:10060000D20260E88AE00E94BF0260E081E00E94BE
:1006100082027501D12CC7018A199B098C159D0591
:1006200038F4F70161917F0189E00E948202F3CFE3
:100630006CE081E00E94820260E88DE00E94BF02CF
:1006400030EDC32E37E0D32E84E00E94A002F82EB6
:10065000F1E0CF1AD10811F08173B1F360E88DE0B9
:100660000E94D202CD2811F482E03EC086E00E94B2
:10067000A0028B71C9F78AE00E94A002982F8CE03B
:1006800099830E94A00287709981692F70E0882366
:1006900051F06150710923E0660F771F2A95E1F749
:1006A000680F711D05C083E0660F771F8A95E1F71B
:1006B000F80171836083992321F0913118F090E162
:1006C00001C091E06401092F10E0C6018819990961
:1006D0008017910738F489E00E94A002F601819307
:1006E0006F01F3CF8F2D81700F90DF91CF911F910C
:1006F0000F91FF90EF90DF90CF90BF90AF909F90C1
:100700008F9008950E94D7066115710579F0FB015D
:1007100001900020E9F73197AF01461B570BDC0130
:10072000ED91FC910280F381E02D099480E090E04E
:100730000895CF93DF93BC018DE591E00E9484037F
:10074000EC0161E271E08DE591E00E9484038C0F81
:100750009D1FDF91CF9108951F920F920FB60F92B8
:1007600011242F933F934F935F936F937F938F93B6
:100770009F93AF93BF93EF93FF938DE591E00E941A
:100780007701FF91EF91BF91AF919F918F917F91F1
:100790006F915F914F913F912F910F900FBE0F90EE
:1007A0001F9018951F920F920FB60F9211242F933E
:1007B0008F939F93EF93FF93E0916D01F0916E0102
:1007C0008081E0917301F091740182FD12C09081EB
:1007D000809176018F5F8F7320917701821751F09E
:1007E000E0917601F0E0E35AFE4F958F8093760119
:1007F00001C08081FF91EF919F918F912F910F9078
:100800000FBE0F901F9018951F920F920FB60F9268
:1008100011242F933F938F939F93AF93BF93809116
:10082000590190915A01A0915B01B0915C01309106
:100830004A0123E0230F2D3720F40196A11DB11D9D
:1008400005C026E8230F0296A11DB11D20934A0181
:100850008093590190935A01A0935B01B0935C017E
:1008600080914B0190914C01A0914D01B0914E01AE
:100870000196A11DB11D80934B0190934C01A09353
:100880004D01B0934E01BF91AF919F918F913F91D8
:100890002F910F900FBE0F901F901895CF93DF935D
:1008A000EDE5F1E01382128288EE93E0A0E0B0E083
:1008B00084839583A683B78384E091E091838083CA
:1008C00085EC90E09587848784EC90E09787868715
:1008D00080EC90E0918B808B81EC90E0938B828B0D
:1008E00082EC90E0958B848B86EC90E0978B868BE6
:1008F000118E128E138E148EEAEFF1E0168217829B
:10090000108611861286138614861586168617861B
:10091000108A118A128A138A148A158AC2E4D2E0D4
:100920008AE090E09B878A870E94870060E08A8542
:100930000E940B0289E00E94870061E089E00E942A
:100940000B0289E090E09D878C87DF91CF9108951D
:10095000CF93DF93CDB7DEB7A3970FB6F894DEBF82
:100960000FBECDBF789484B5826084BD84B58160AC
:1009700084BD85B5826085BD85B5816085BD80916A
:100980006E00816080936E001092810080918100E2
:1009900082608093810080918100816080938100DA
:1009A000809180008160809380008091B10084609C
:1009B0008093B1008091B00081608093B0008091FD
:1009C0007A00846080937A0080917A0082608093BC
:1009D0007A0080917A00816080937A0080917A0019
:1009E000806880937A001092C10010923E021092AB
:1009F0003F0210924002109241021092FC011092AC
:100A0000FD011092FE011092FF0168EB7BE080E097
:100A100090E00E94CE008DE591E090933D0280939E
:100A20003C020E94A6002FB7F89480915901909142
:100A30005A01A0915B01B0915C012FBF8093FC0132
:100A40009093FD01A093FE01B093FF0162E171E07C
:100A500080913C0290913D020E9484036AE070E024
:100A600080E090E00E94CE0081E0809310020E941E
:100A7000A6008DE00E9487008BE00E9487008AE03C
:100A80000E94870060E08DE00E940B0260E08BE036
:100A90000E940B0261E08AE00E940B028CB580612B
:100AA0008CBD8CB580648CBD61E080914E020E944B
:100AB0000B026FE081E00E9482026DE88AE20E94F0
:100AC00082026EE38BE20E9482026EE18DE20E945E
:100AD000820260E08CE20E94820260E485E10E9472
:100AE00082026DE381E10E94820284E10E94A00201
:100AF000837021F463E084E10E94BF0284E291E00C
:100B00000E94990326E2622E30E5732E4AE0242EDD
:100B1000312C412C512C67E08DE00E9482026982C9
:100B20009E012E5D3F4FAE014F5F5F4F61E0CA01F6
:100B30000E94E6028111EAC08AA19BA1409709F0B8
:100B4000E5C08BE291E00E94990360E08DE00E9495
:100B5000820223E9298380E28A839E012E5D3F4F32
:100B6000AE014F5F5F4F62E0CA010E94E602811151
:100B70000AC02A81998192272B8192272C81922762
:100B80002D81921382E0FE013196A2E4B2E095E05D
:100B900001900D929A95E1F7811188C082E391E06E
:100BA0000E94990392E4C92E92E0D92E0FE411E03D
:100BB000F60121916F01822F90E0F80181939193CA
:100BC0008F0130E040E050E019A2CE0181967C0117
:100BD000CA01B901A20191010E94AF06605DF7014F
:100BE00062937F01211531054105510589F7BF0148
:100BF0008DE591E00E94840361E271E08DE591E072
:100C00000E948403F1E009351F0791F680914F019E
:100C100090915001803C9105F9F48091510190919F
:100C200052018897C9F480915301909154018E37F5
:100C3000910591F480915501909156018A37910563
:100C400059F480915701909158018C3E910521F4FF
:100C50008EE391E00E94990380914F0190915001A1
:100C6000843C9105F9F48091510190915201893CA5
:100C70009105C1F480915301909154018E349105F6
:100C800089F48091550190915601C99759F480914A
:100C90005701909158018A37910521F484E491E03D
:100CA0000E94990383E291E00E94990379821A825B
:100CB00064E085E00E94D20260E88AE00E94BF0200
:100CC000698189E00E9482026A8189E00E94820231
:100CD00063E081E00E9482021FEF85E00E94A00293
:100CE000115011F082FFF9CF82E20E94A0028B83A3
:100CF00081E20E94A0028C839E012E5D3F4FAE01D7
:100D00004F5F5F4F64E0CA010E94E6020E945702F3
:100D10004B015C018AE0C82ED12CE12CF12C0E9401
:100D20005702DC01CB0188199909AA09BB09883E41
:100D30009340A105B10558F021E0C21AD108E1089D
:100D4000F10888EE880E83E0981EA11CB11CC11426
:100D5000D104E104F10419F70E940102DCCEA1E202
:100D60001A2EAA1BBB1BFD010DC0AA1FBB1FEE1F25
:100D7000FF1FA217B307E407F50720F0A21BB30B70
:100D8000E40BF50B661F771F881F991F1A9469F7EC
:100D900060957095809590959B01AC01BD01CF0148
:100DA0000895EE0FFF1F0590F491E02D099481E066
:0C0DB00090E0F8940C94DC06F894FFCF5F
:100DBC0000000000980101013001DF0161013F01D9
:100DCC005301564D4450565F317C315F564D445063
:100DDC00560D0A0048454C4C4F2100697343617213
:100DEC0064004C27554944206573743A20004361D4
:0A0DFC0072746500426164676500CF
:107E0000112484B714BE81FFF0D085E080938100F7
:107E100082E08093C00088E18093C10086E0809377
:107E2000C20080E18093C4008EE0C9D0259A86E02C
:107E300020E33CEF91E0309385002093840096BBD3
:107E4000B09BFECF1D9AA8958150A9F7CC24DD24C4
:107E500088248394B5E0AB2EA1E19A2EF3E0BF2EE7
:107E6000A2D0813461F49FD0082FAFD0023811F036
:107E7000013811F484E001C083E08DD089C08234E0
:107E800011F484E103C0853419F485E0A6D080C0E4
:107E9000853579F488D0E82EFF2485D0082F10E0AE
:107EA000102F00270E291F29000F111F8ED06801E7
:107EB0006FC0863521F484E090D080E0DECF843638
:107EC00009F040C070D06FD0082F6DD080E0C81688
:107ED00080E7D80618F4F601B7BEE895C0E0D1E017
:107EE00062D089930C17E1F7F0E0CF16F0E7DF06D8
:107EF00018F0F601B7BEE89568D007B600FCFDCFD4
:107F0000A601A0E0B1E02C9130E011968C91119780
:107F100090E0982F8827822B932B1296FA010C0160
:107F200087BEE89511244E5F5F4FF1E0A038BF0790
:107F300051F7F601A7BEE89507B600FCFDCF97BE46
:107F4000E89526C08437B1F42ED02DD0F82E2BD052
:107F50003CD0F601EF2C8F010F5F1F4F84911BD097
:107F6000EA94F801C1F70894C11CD11CFA94CF0C13
:107F7000D11C0EC0853739F428D08EE10CD085E9AC
:107F80000AD08FE07ACF813511F488E018D01DD067
:107F900080E101D065CF982F8091C00085FFFCCF94
:107FA0009093C60008958091C00087FFFCCF809118
:107FB000C00084FD01C0A8958091C6000895E0E648
:107FC000F0E098E1908380830895EDDF803219F02E
:107FD00088E0F5DFFFCF84E1DECF1F93182FE3DFCA
:107FE0001150E9F7F2DF1F91089580E0E8DFEE27F6
:047FF000FF270994CA
:027FFE00040479
:0400000300007E007B
:00000001FF